{
  "_format": "hh-sol-artifact-1",
  "contractName": "MetaToken",
  "sourceName": "contracts/MetaToken.sol",
  "abi": [
    {
      "inputs": [],
      "stateMutability": "nonpayable",
      "type": "constructor"
    },
    {
      "anonymous": false,
      "inputs": [
        {
          "indexed": true,
          "internalType": "address",
          "name": "owner",
          "type": "address"
        },
        {
          "indexed": true,
          "internalType": "address",
          "name": "approved",
          "type": "address"
        },
        {
          "indexed": true,
          "internalType": "uint256",
          "name": "tokenId",
          "type": "uint256"
        }
      ],
      "name": "Approval",
      "type": "event"
    },
    {
      "anonymous": false,
      "inputs": [
        {
          "indexed": true,
          "internalType": "address",
          "name": "owner",
          "type": "address"
        },
        {
          "indexed": true,
          "internalType": "address",
          "name": "operator",
          "type": "address"
        },
        {
          "indexed": false,
          "internalType": "bool",
          "name": "approved",
          "type": "bool"
        }
      ],
      "name": "ApprovalForAll",
      "type": "event"
    },
    {
      "anonymous": false,
      "inputs": [
        {
          "indexed": true,
          "internalType": "address",
          "name": "previousOwner",
          "type": "address"
        },
        {
          "indexed": true,
          "internalType": "address",
          "name": "newOwner",
          "type": "address"
        }
      ],
      "name": "OwnershipTransferred",
      "type": "event"
    },
    {
      "anonymous": false,
      "inputs": [
        {
          "indexed": true,
          "internalType": "address",
          "name": "from",
          "type": "address"
        },
        {
          "indexed": true,
          "internalType": "address",
          "name": "to",
          "type": "address"
        },
        {
          "indexed": true,
          "internalType": "uint256",
          "name": "tokenId",
          "type": "uint256"
        }
      ],
      "name": "Transfer",
      "type": "event"
    },
    {
      "inputs": [
        {
          "internalType": "address",
          "name": "to",
          "type": "address"
        },
        {
          "internalType": "uint256",
          "name": "tokenId",
          "type": "uint256"
        }
      ],
      "name": "approve",
      "outputs": [],
      "stateMutability": "nonpayable",
      "type": "function"
    },
    {
      "inputs": [
        {
          "internalType": "address",
          "name": "owner",
          "type": "address"
        }
      ],
      "name": "balanceOf",
      "outputs": [
        {
          "internalType": "uint256",
          "name": "",
          "type": "uint256"
        }
      ],
      "stateMutability": "view",
      "type": "function"
    },
    {
      "inputs": [],
      "name": "decimals",
      "outputs": [
        {
          "internalType": "uint8",
          "name": "",
          "type": "uint8"
        }
      ],
      "stateMutability": "pure",
      "type": "function"
    },
    {
      "inputs": [
        {
          "internalType": "uint256",
          "name": "tokenId",
          "type": "uint256"
        }
      ],
      "name": "getApproved",
      "outputs": [
        {
          "internalType": "address",
          "name": "",
          "type": "address"
        }
      ],
      "stateMutability": "view",
      "type": "function"
    },
    {
      "inputs": [
        {
          "internalType": "address",
          "name": "owner",
          "type": "address"
        },
        {
          "internalType": "address",
          "name": "operator",
          "type": "address"
        }
      ],
      "name": "isApprovedForAll",
      "outputs": [
        {
          "internalType": "bool",
          "name": "",
          "type": "bool"
        }
      ],
      "stateMutability": "view",
      "type": "function"
    },
    {
      "inputs": [
        {
          "internalType": "address",
          "name": "to",
          "type": "address"
        },
        {
          "internalType": "uint256",
          "name": "amount",
          "type": "uint256"
        }
      ],
      "name": "mint",
      "outputs": [],
      "stateMutability": "nonpayable",
      "type": "function"
    },
    {
      "inputs": [],
      "name": "name",
      "outputs": [
        {
          "internalType": "string",
          "name": "",
          "type": "string"
        }
      ],
      "stateMutability": "view",
      "type": "function"
    },
    {
      "inputs": [],
      "name": "owner",
      "outputs": [
        {
          "internalType": "address",
          "name": "",
          "type": "address"
        }
      ],
      "stateMutability": "view",
      "type": "function"
    },
    {
      "inputs": [
        {
          "internalType": "uint256",
          "name": "tokenId",
          "type": "uint256"
        }
      ],
      "name": "ownerOf",
      "outputs": [
        {
          "internalType": "address",
          "name": "",
          "type": "address"
        }
      ],
      "stateMutability": "view",
      "type": "function"
    },
    {
      "inputs": [],
      "name": "promptDescription",
      "outputs": [
        {
          "internalType": "string",
          "name": "",
          "type": "string"
        }
      ],
      "stateMutability": "pure",
      "type": "function"
    },
    {
      "inputs": [],
      "name": "renounceOwnership",
      "outputs": [],
      "stateMutability": "nonpayable",
      "type": "function"
    },
    {
      "inputs": [
        {
          "internalType": "address",
          "name": "from",
          "type": "address"
        },
        {
          "internalType": "address",
          "name": "to",
          "type": "address"
        },
        {
          "internalType": "uint256",
          "name": "tokenId",
          "type": "uint256"
        }
      ],
      "name": "safeTransferFrom",
      "outputs": [],
      "stateMutability": "nonpayable",
      "type": "function"
    },
    {
      "inputs": [
        {
          "internalType": "address",
          "name": "from",
          "type": "address"
        },
        {
          "internalType": "address",
          "name": "to",
          "type": "address"
        },
        {
          "internalType": "uint256",
          "name": "tokenId",
          "type": "uint256"
        },
        {
          "internalType": "bytes",
          "name": "data",
          "type": "bytes"
        }
      ],
      "name": "safeTransferFrom",
      "outputs": [],
      "stateMutability": "nonpayable",
      "type": "function"
    },
    {
      "inputs": [
        {
          "internalType": "address",
          "name": "operator",
          "type": "address"
        },
        {
          "internalType": "bool",
          "name": "approved",
          "type": "bool"
        }
      ],
      "name": "setApprovalForAll",
      "outputs": [],
      "stateMutability": "nonpayable",
      "type": "function"
    },
    {
      "inputs": [
        {
          "internalType": "bytes4",
          "name": "interfaceId",
          "type": "bytes4"
        }
      ],
      "name": "supportsInterface",
      "outputs": [
        {
          "internalType": "bool",
          "name": "",
          "type": "bool"
        }
      ],
      "stateMutability": "view",
      "type": "function"
    },
    {
      "inputs": [],
      "name": "symbol",
      "outputs": [
        {
          "internalType": "string",
          "name": "",
          "type": "string"
        }
      ],
      "stateMutability": "view",
      "type": "function"
    },
    {
      "inputs": [
        {
          "internalType": "uint256",
          "name": "tokenId",
          "type": "uint256"
        }
      ],
      "name": "tokenURI",
      "outputs": [
        {
          "internalType": "string",
          "name": "",
          "type": "string"
        }
      ],
      "stateMutability": "view",
      "type": "function"
    },
    {
      "inputs": [
        {
          "internalType": "address",
          "name": "from",
          "type": "address"
        },
        {
          "internalType": "address",
          "name": "to",
          "type": "address"
        },
        {
          "internalType": "uint256",
          "name": "tokenId",
          "type": "uint256"
        }
      ],
      "name": "transferFrom",
      "outputs": [],
      "stateMutability": "nonpayable",
      "type": "function"
    },
    {
      "inputs": [
        {
          "internalType": "address",
          "name": "newOwner",
          "type": "address"
        }
      ],
      "name": "transferOwnership",
      "outputs": [],
      "stateMutability": "nonpayable",
      "type": "function"
    }
  ],
  "bytecode": "0x608060405234801562000010575f80fd5b506040518060400160405280600981526020017f4d657461546f6b656e00000000000000000000000000000000000000000000008152506040518060400160405280600381526020017f4d54410000000000000000000000000000000000000000000000000000000000815250815f90816200008d9190620003f6565b5080600190816200009f9190620003f6565b505050620000c2620000b6620000c860201b60201c565b620000cf60201b60201c565b620004da565b5f33905090565b5f60065f9054906101000a900473ffffffffffffffffffffffffffffffffffffffff1690508160065f6101000a81548173ffffffffffffffffffffffffffffffffffffffff021916908373ffffffffffffffffffffffffffffffffffffffff1602179055508173ffffffffffffffffffffffffffffffffffffffff168173ffffffffffffffffffffffffffffffffffffffff167f8be0079c531659141344cd1fd0a4f28419497f9722a3daafe3b4186f6b6457e060405160405180910390a35050565b5f81519050919050565b7f4e487b71000000000000000000000000000000000000000000000000000000005f52604160045260245ffd5b7f4e487b71000000000000000000000000000000000000000000000000000000005f52602260045260245ffd5b5f60028204905060018216806200020e57607f821691505b602082108103620002245762000223620001c9565b5b50919050565b5f819050815f5260205f209050919050565b5f6020601f8301049050919050565b5f82821b905092915050565b5f60088302620002887fffffffffffffffffffffffffffffffffffffffffffffffffffffffffffffffff826200024b565b6200029486836200024b565b95508019841693508086168417925050509392505050565b5f819050919050565b5f819050919050565b5f620002de620002d8620002d284620002ac565b620002b5565b620002ac565b9050919050565b5f819050919050565b620002f983620002be565b620003116200030882620002e5565b84845462000257565b825550505050565b5f90565b6200032762000319565b62000334818484620002ee565b505050565b5b818110156200035b576200034f5f826200031d565b6001810190506200033a565b5050565b601f821115620003aa5762000374816200022a565b6200037f846200023c565b810160208510156200038f578190505b620003a76200039e856200023c565b83018262000339565b50505b505050565b5f82821c905092915050565b5f620003cc5f1984600802620003af565b1980831691505092915050565b5f620003e68383620003bb565b9150826002028217905092915050565b620004018262000192565b67ffffffffffffffff8111156200041d576200041c6200019c565b5b620004298254620001f6565b620004368282856200035f565b5f60209050601f8311600181146200046c575f841562000457578287015190505b620004638582620003d9565b865550620004d2565b601f1984166200047c866200022a565b5f5b82811015620004a5578489015182556001820191506020850194506020810190506200047e565b86831015620004c55784890151620004c1601f891682620003bb565b8355505b6001600288020188555050505b505050505050565b6127d980620004e85f395ff3fe608060405234801561000f575f80fd5b506004361061011f575f3560e01c806370a08231116100ab578063a22cb4651161006f578063a22cb465146102f3578063b88d4fde1461030f578063c87b56dd1461032b578063e985e9c51461035b578063f2fde38b1461038b5761011f565b806370a082311461025f578063715018a61461028f5780638da5cb5b1461029957806395363731146102b757806395d89b41146102d55761011f565b806323b872dd116100f257806323b872dd146101bd578063313ce567146101d957806340c10f19146101f757806342842e0e146102135780636352211e1461022f5761011f565b806301ffc9a71461012357806306fdde0314610153578063081812fc14610171578063095ea7b3146101a1575b5f80fd5b61013d600480360381019061013891906119e0565b6103a7565b60405161014a9190611a25565b60405180910390f35b61015b610488565b6040516101689190611ac8565b60405180910390f35b61018b60048036038101906101869190611b1b565b610517565b6040516101989190611b85565b60405180910390f35b6101bb60048036038101906101b69190611bc8565b610559565b005b6101d760048036038101906101d29190611c06565b61066f565b005b6101e16106cf565b6040516101ee9190611c71565b60405180910390f35b610211600480360381019061020c9190611bc8565b6106d3565b005b61022d60048036038101906102289190611c06565b6106e9565b005b61024960048036038101906102449190611b1b565b610708565b6040516102569190611b85565b60405180910390f35b61027960048036038101906102749190611c8a565b61078c565b6040516102869190611cc4565b60405180910390f35b610297610840565b005b6102a1610853565b6040516102ae9190611b85565b60405180910390f35b6102bf61087b565b6040516102cc9190611ac8565b60405180910390f35b6102dd61089b565b6040516102ea9190611ac8565b60405180910390f35b61030d60048036038101906103089190611d07565b61092b565b005b61032960048036038101906103249190611e71565b610941565b005b61034560048036038101906103409190611b1b565b6109a3565b6040516103529190611ac8565b60405180910390f35b61037560048036038101906103709190611ef1565b610a08565b6040516103829190611a25565b60405180910390f35b6103a560048036038101906103a09190611c8a565b610a96565b005b5f7f80ac58cd000000000000000000000000000000000000000000000000000000007bffffffffffffffffffffffffffffffffffffffffffffffffffffffff1916827bffffffffffffffffffffffffffffffffffffffffffffffffffffffff1916148061047157507f5b5e139f000000000000000000000000000000000000000000000000000000007bffffffffffffffffffffffffffffffffffffffffffffffffffffffff1916827bffffffffffffffffffffffffffffffffffffffffffffffffffffffff1916145b80610481575061048082610b18565b5b9050919050565b60605f805461049690611f5c565b80601f01602080910402602001604051908101604052809291908181526020018280546104c290611f5c565b801561050d5780601f106104e45761010080835404028352916020019161050d565b820191905f5260205f20905b8154815290600101906020018083116104f057829003601f168201915b5050505050905090565b5f61052182610b81565b60045f8381526020019081526020015f205f9054906101000a900473ffffffffffffffffffffffffffffffffffffffff169050919050565b5f61056382610708565b90508073ffffffffffffffffffffffffffffffffffffffff168373ffffffffffffffffffffffffffffffffffffffff16036105d3576040517f08c379a00000000000000000000000000000000000000000000000000000000081526004016105ca90611ffc565b60405180910390fd5b8073ffffffffffffffffffffffffffffffffffffffff166105f2610bcc565b73ffffffffffffffffffffffffffffffffffffffff16148061062157506106208161061b610bcc565b610a08565b5b610660576040517f08c379a00000000000000000000000000000000000000000000000000000000081526004016106579061208a565b60405180910390fd5b61066a8383610bd3565b505050565b61068061067a610bcc565b82610c89565b6106bf576040517f08c379a00000000000000000000000000000000000000000000000000000000081526004016106b690612118565b60405180910390fd5b6106ca838383610d1d565b505050565b5f90565b6106db611009565b6106e58282611087565b5050565b61070383838360405180602001604052805f815250610941565b505050565b5f806107138361129a565b90505f73ffffffffffffffffffffffffffffffffffffffff168173ffffffffffffffffffffffffffffffffffffffff1603610783576040517f08c379a000000000000000000000000000000000000000000000000000000000815260040161077a90612180565b60405180910390fd5b80915050919050565b5f8073ffffffffffffffffffffffffffffffffffffffff168273ffffffffffffffffffffffffffffffffffffffff16036107fb576040517f08c379a00000000000000000000000000000000000000000000000000000000081526004016107f29061220e565b60405180910390fd5b60035f8373ffffffffffffffffffffffffffffffffffffffff1673ffffffffffffffffffffffffffffffffffffffff1681526020019081526020015f20549050919050565b610848611009565b6108515f6112d3565b565b5f60065f9054906101000a900473ffffffffffffffffffffffffffffffffffffffff16905090565b60606040518060600160405280603a815260200161276a603a9139905090565b6060600180546108aa90611f5c565b80601f01602080910402602001604051908101604052809291908181526020018280546108d690611f5c565b80156109215780601f106108f857610100808354040283529160200191610921565b820191905f5260205f20905b81548152906001019060200180831161090457829003601f168201915b5050505050905090565b61093d610936610bcc565b8383611396565b5050565b61095261094c610bcc565b83610c89565b610991576040517f08c379a000000000000000000000000000000000000000000000000000000000815260040161098890612118565b60405180910390fd5b61099d848484846114fd565b50505050565b60606109ae82610b81565b5f6109b7611559565b90505f8151116109d55760405180602001604052805f815250610a00565b806109df8461156f565b6040516020016109f0929190612266565b6040516020818303038152906040525b915050919050565b5f60055f8473ffffffffffffffffffffffffffffffffffffffff1673ffffffffffffffffffffffffffffffffffffffff1681526020019081526020015f205f8373ffffffffffffffffffffffffffffffffffffffff1673ffffffffffffffffffffffffffffffffffffffff1681526020019081526020015f205f9054906101000a900460ff16905092915050565b610a9e611009565b5f73ffffffffffffffffffffffffffffffffffffffff168173ffffffffffffffffffffffffffffffffffffffff1603610b0c576040517f08c379a0000000000000000000000000000000000000000000000000000000008152600401610b03906122f9565b60405180910390fd5b610b15816112d3565b50565b5f7f01ffc9a7000000000000000000000000000000000000000000000000000000007bffffffffffffffffffffffffffffffffffffffffffffffffffffffff1916827bffffffffffffffffffffffffffffffffffffffffffffffffffffffff1916149050919050565b610b8a81611639565b610bc9576040517f08c379a0000000000000000000000000000000000000000000000000000000008152600401610bc090612180565b60405180910390fd5b50565b5f33905090565b8160045f8381526020019081526020015f205f6101000a81548173ffffffffffffffffffffffffffffffffffffffff021916908373ffffffffffffffffffffffffffffffffffffffff160217905550808273ffffffffffffffffffffffffffffffffffffffff16610c4383610708565b73ffffffffffffffffffffffffffffffffffffffff167f8c5be1e5ebec7d5bd14f71427d1e84f3dd0314c0f7b2291e5b200ac8c7c3b92560405160405180910390a45050565b5f80610c9483610708565b90508073ffffffffffffffffffffffffffffffffffffffff168473ffffffffffffffffffffffffffffffffffffffff161480610cd65750610cd58185610a08565b5b80610d1457508373ffffffffffffffffffffffffffffffffffffffff16610cfc84610517565b73ffffffffffffffffffffffffffffffffffffffff16145b91505092915050565b8273ffffffffffffffffffffffffffffffffffffffff16610d3d82610708565b73ffffffffffffffffffffffffffffffffffffffff1614610d93576040517f08c379a0000000000000000000000000000000000000000000000000000000008152600401610d8a90612387565b60405180910390fd5b5f73ffffffffffffffffffffffffffffffffffffffff168273ffffffffffffffffffffffffffffffffffffffff1603610e01576040517f08c379a0000000000000000000000000000000000000000000000000000000008152600401610df890612415565b60405180910390fd5b610e0e8383836001611679565b8273ffffffffffffffffffffffffffffffffffffffff16610e2e82610708565b73ffffffffffffffffffffffffffffffffffffffff1614610e84576040517f08c379a0000000000000000000000000000000000000000000000000000000008152600401610e7b90612387565b60405180910390fd5b60045f8281526020019081526020015f205f6101000a81549073ffffffffffffffffffffffffffffffffffffffff0219169055600160035f8573ffffffffffffffffffffffffffffffffffffffff1673ffffffffffffffffffffffffffffffffffffffff1681526020019081526020015f205f8282540392505081905550600160035f8473ffffffffffffffffffffffffffffffffffffffff1673ffffffffffffffffffffffffffffffffffffffff1681526020019081526020015f205f82825401925050819055508160025f8381526020019081526020015f205f6101000a81548173ffffffffffffffffffffffffffffffffffffffff021916908373ffffffffffffffffffffffffffffffffffffffff160217905550808273ffffffffffffffffffffffffffffffffffffffff168473ffffffffffffffffffffffffffffffffffffffff167fddf252ad1be2c89b69c2b068fc378daa952ba7f163c4a11628f55a4df523b3ef60405160405180910390a4611004838383600161167f565b505050565b611011610bcc565b73ffffffffffffffffffffffffffffffffffffffff1661102f610853565b73ffffffffffffffffffffffffffffffffffffffff1614611085576040517f08c379a000000000000000000000000000000000000000000000000000000000815260040161107c9061247d565b60405180910390fd5b565b5f73ffffffffffffffffffffffffffffffffffffffff168273ffffffffffffffffffffffffffffffffffffffff16036110f5576040517f08c379a00000000000000000000000000000000000000000000000000000000081526004016110ec906124e5565b60405180910390fd5b6110fe81611639565b1561113e576040517f08c379a00000000000000000000000000000000000000000000000000000000081526004016111359061254d565b60405180910390fd5b61114b5f83836001611679565b61115481611639565b15611194576040517f08c379a000000000000000000000000000000000000000000000000000000000815260040161118b9061254d565b60405180910390fd5b600160035f8473ffffffffffffffffffffffffffffffffffffffff1673ffffffffffffffffffffffffffffffffffffffff1681526020019081526020015f205f82825401925050819055508160025f8381526020019081526020015f205f6101000a81548173ffffffffffffffffffffffffffffffffffffffff021916908373ffffffffffffffffffffffffffffffffffffffff160217905550808273ffffffffffffffffffffffffffffffffffffffff165f73ffffffffffffffffffffffffffffffffffffffff167fddf252ad1be2c89b69c2b068fc378daa952ba7f163c4a11628f55a4df523b3ef60405160405180910390a46112965f8383600161167f565b5050565b5f60025f8381526020019081526020015f205f9054906101000a900473ffffffffffffffffffffffffffffffffffffffff169050919050565b5f60065f9054906101000a900473ffffffffffffffffffffffffffffffffffffffff1690508160065f6101000a81548173ffffffffffffffffffffffffffffffffffffffff021916908373ffffffffffffffffffffffffffffffffffffffff1602179055508173ffffffffffffffffffffffffffffffffffffffff168173ffffffffffffffffffffffffffffffffffffffff167f8be0079c531659141344cd1fd0a4f28419497f9722a3daafe3b4186f6b6457e060405160405180910390a35050565b8173ffffffffffffffffffffffffffffffffffffffff168373ffffffffffffffffffffffffffffffffffffffff1603611404576040517f08c379a00000000000000000000000000000000000000000000000000000000081526004016113fb906125b5565b60405180910390fd5b8060055f8573ffffffffffffffffffffffffffffffffffffffff1673ffffffffffffffffffffffffffffffffffffffff1681526020019081526020015f205f8473ffffffffffffffffffffffffffffffffffffffff1673ffffffffffffffffffffffffffffffffffffffff1681526020019081526020015f205f6101000a81548160ff0219169083151502179055508173ffffffffffffffffffffffffffffffffffffffff168373ffffffffffffffffffffffffffffffffffffffff167f17307eab39ab6107e8899845ad3d59bd9653f200f220920489ca2b5937696c31836040516114f09190611a25565b60405180910390a3505050565b611508848484610d1d565b61151484848484611685565b611553576040517f08c379a000000000000000000000000000000000000000000000000000000000815260040161154a90612643565b60405180910390fd5b50505050565b606060405180602001604052805f815250905090565b60605f600161157d84611807565b0190505f8167ffffffffffffffff81111561159b5761159a611d4d565b5b6040519080825280601f01601f1916602001820160405280156115cd5781602001600182028036833780820191505090505b5090505f82602001820190505b60011561162e578080600190039150507f3031323334353637383961626364656600000000000000000000000000000000600a86061a8153600a858161162357611622612661565b5b0494505f85036115da575b819350505050919050565b5f8073ffffffffffffffffffffffffffffffffffffffff1661165a8361129a565b73ffffffffffffffffffffffffffffffffffffffff1614159050919050565b50505050565b50505050565b5f6116a58473ffffffffffffffffffffffffffffffffffffffff16611958565b156117fa578373ffffffffffffffffffffffffffffffffffffffff1663150b7a026116ce610bcc565b8786866040518563ffffffff1660e01b81526004016116f094939291906126e0565b6020604051808303815f875af192505050801561172b57506040513d601f19601f82011682018060405250810190611728919061273e565b60015b6117aa573d805f8114611759576040519150601f19603f3d011682016040523d82523d5f602084013e61175e565b606091505b505f8151036117a2576040517f08c379a000000000000000000000000000000000000000000000000000000000815260040161179990612643565b60405180910390fd5b805181602001fd5b63150b7a0260e01b7bffffffffffffffffffffffffffffffffffffffffffffffffffffffff1916817bffffffffffffffffffffffffffffffffffffffffffffffffffffffff1916149150506117ff565b600190505b949350505050565b5f805f90507a184f03e93ff9f4daa797ed6e38ed64bf6a1f0100000000000000008310611863577a184f03e93ff9f4daa797ed6e38ed64bf6a1f010000000000000000838161185957611858612661565b5b0492506040810190505b6d04ee2d6d415b85acef810000000083106118a0576d04ee2d6d415b85acef8100000000838161189657611895612661565b5b0492506020810190505b662386f26fc1000083106118cf57662386f26fc1000083816118c5576118c4612661565b5b0492506010810190505b6305f5e10083106118f8576305f5e10083816118ee576118ed612661565b5b0492506008810190505b612710831061191d57612710838161191357611912612661565b5b0492506004810190505b60648310611940576064838161193657611935612661565b5b0492506002810190505b600a831061194f576001810190505b80915050919050565b5f808273ffffffffffffffffffffffffffffffffffffffff163b119050919050565b5f604051905090565b5f80fd5b5f80fd5b5f7fffffffff0000000000000000000000000000000000000000000000000000000082169050919050565b6119bf8161198b565b81146119c9575f80fd5b50565b5f813590506119da816119b6565b92915050565b5f602082840312156119f5576119f4611983565b5b5f611a02848285016119cc565b91505092915050565b5f8115159050919050565b611a1f81611a0b565b82525050565b5f602082019050611a385f830184611a16565b92915050565b5f81519050919050565b5f82825260208201905092915050565b5f5b83811015611a75578082015181840152602081019050611a5a565b5f8484015250505050565b5f601f19601f8301169050919050565b5f611a9a82611a3e565b611aa48185611a48565b9350611ab4818560208601611a58565b611abd81611a80565b840191505092915050565b5f6020820190508181035f830152611ae08184611a90565b905092915050565b5f819050919050565b611afa81611ae8565b8114611b04575f80fd5b50565b5f81359050611b1581611af1565b92915050565b5f60208284031215611b3057611b2f611983565b5b5f611b3d84828501611b07565b91505092915050565b5f73ffffffffffffffffffffffffffffffffffffffff82169050919050565b5f611b6f82611b46565b9050919050565b611b7f81611b65565b82525050565b5f602082019050611b985f830184611b76565b92915050565b611ba781611b65565b8114611bb1575f80fd5b50565b5f81359050611bc281611b9e565b92915050565b5f8060408385031215611bde57611bdd611983565b5b5f611beb85828601611bb4565b9250506020611bfc85828601611b07565b9150509250929050565b5f805f60608486031215611c1d57611c1c611983565b5b5f611c2a86828701611bb4565b9350506020611c3b86828701611bb4565b9250506040611c4c86828701611b07565b9150509250925092565b5f60ff82169050919050565b611c6b81611c56565b82525050565b5f602082019050611c845f830184611c62565b92915050565b5f60208284031215611c9f57611c9e611983565b5b5f611cac84828501611bb4565b91505092915050565b611cbe81611ae8565b82525050565b5f602082019050611cd75f830184611cb5565b92915050565b611ce681611a0b565b8114611cf0575f80fd5b50565b5f81359050611d0181611cdd565b92915050565b5f8060408385031215611d1d57611d1c611983565b5b5f611d2a85828601611bb4565b9250506020611d3b85828601611cf3565b9150509250929050565b5f80fd5b5f80fd5b7f4e487b71000000000000000000000000000000000000000000000000000000005f52604160045260245ffd5b611d8382611a80565b810181811067ffffffffffffffff82111715611da257611da1611d4d565b5b80604052505050565b5f611db461197a565b9050611dc08282611d7a565b919050565b5f67ffffffffffffffff821115611ddf57611dde611d4d565b5b611de882611a80565b9050602081019050919050565b828183375f83830152505050565b5f611e15611e1084611dc5565b611dab565b905082815260208101848484011115611e3157611e30611d49565b5b611e3c848285611df5565b509392505050565b5f82601f830112611e5857611e57611d45565b5b8135611e68848260208601611e03565b91505092915050565b5f805f8060808587031215611e8957611e88611983565b5b5f611e9687828801611bb4565b9450506020611ea787828801611bb4565b9350506040611eb887828801611b07565b925050606085013567ffffffffffffffff811115611ed957611ed8611987565b5b611ee587828801611e44565b91505092959194509250565b5f8060408385031215611f0757611f06611983565b5b5f611f1485828601611bb4565b9250506020611f2585828601611bb4565b9150509250929050565b7f4e487b71000000000000000000000000000000000000000000000000000000005f52602260045260245ffd5b5f6002820490506001821680611f7357607f821691505b602082108103611f8657611f85611f2f565b5b50919050565b7f4552433732313a20617070726f76616c20746f2063757272656e74206f776e655f8201527f7200000000000000000000000000000000000000000000000000000000000000602082015250565b5f611fe6602183611a48565b9150611ff182611f8c565b604082019050919050565b5f6020820190508181035f83015261201381611fda565b9050919050565b7f4552433732313a20617070726f76652063616c6c6572206973206e6f7420746f5f8201527f6b656e206f776e6572206f7220617070726f76656420666f7220616c6c000000602082015250565b5f612074603d83611a48565b915061207f8261201a565b604082019050919050565b5f6020820190508181035f8301526120a181612068565b9050919050565b7f4552433732313a2063616c6c6572206973206e6f7420746f6b656e206f776e655f8201527f72206f7220617070726f76656400000000000000000000000000000000000000602082015250565b5f612102602d83611a48565b915061210d826120a8565b604082019050919050565b5f6020820190508181035f83015261212f816120f6565b9050919050565b7f4552433732313a20696e76616c696420746f6b656e20494400000000000000005f82015250565b5f61216a601883611a48565b915061217582612136565b602082019050919050565b5f6020820190508181035f8301526121978161215e565b9050919050565b7f4552433732313a2061646472657373207a65726f206973206e6f7420612076615f8201527f6c6964206f776e65720000000000000000000000000000000000000000000000602082015250565b5f6121f8602983611a48565b91506122038261219e565b604082019050919050565b5f6020820190508181035f830152612225816121ec565b9050919050565b5f81905092915050565b5f61224082611a3e565b61224a818561222c565b935061225a818560208601611a58565b80840191505092915050565b5f6122718285612236565b915061227d8284612236565b91508190509392505050565b7f4f776e61626c653a206e6577206f776e657220697320746865207a65726f20615f8201527f6464726573730000000000000000000000000000000000000000000000000000602082015250565b5f6122e3602683611a48565b91506122ee82612289565b604082019050919050565b5f6020820190508181035f830152612310816122d7565b9050919050565b7f4552433732313a207472616e736665722066726f6d20696e636f7272656374205f8201527f6f776e6572000000000000000000000000000000000000000000000000000000602082015250565b5f612371602583611a48565b915061237c82612317565b604082019050919050565b5f6020820190508181035f83015261239e81612365565b9050919050565b7f4552433732313a207472616e7366657220746f20746865207a65726f206164645f8201527f7265737300000000000000000000000000000000000000000000000000000000602082015250565b5f6123ff602483611a48565b915061240a826123a5565b604082019050919050565b5f6020820190508181035f83015261242c816123f3565b9050919050565b7f4f776e61626c653a2063616c6c6572206973206e6f7420746865206f776e65725f82015250565b5f612467602083611a48565b915061247282612433565b602082019050919050565b5f6020820190508181035f8301526124948161245b565b9050919050565b7f4552433732313a206d696e7420746f20746865207a65726f20616464726573735f82015250565b5f6124cf602083611a48565b91506124da8261249b565b602082019050919050565b5f6020820190508181035f8301526124fc816124c3565b9050919050565b7f4552433732313a20746f6b656e20616c7265616479206d696e746564000000005f82015250565b5f612537601c83611a48565b915061254282612503565b602082019050919050565b5f6020820190508181035f8301526125648161252b565b9050919050565b7f4552433732313a20617070726f766520746f2063616c6c6572000000000000005f82015250565b5f61259f601983611a48565b91506125aa8261256b565b602082019050919050565b5f6020820190508181035f8301526125cc81612593565b9050919050565b7f4552433732313a207472616e7366657220746f206e6f6e2045524337323152655f8201527f63656976657220696d706c656d656e7465720000000000000000000000000000602082015250565b5f61262d603283611a48565b9150612638826125d3565b604082019050919050565b5f6020820190508181035f83015261265a81612621565b9050919050565b7f4e487b71000000000000000000000000000000000000000000000000000000005f52601260045260245ffd5b5f81519050919050565b5f82825260208201905092915050565b5f6126b28261268e565b6126bc8185612698565b93506126cc818560208601611a58565b6126d581611a80565b840191505092915050565b5f6080820190506126f35f830187611b76565b6127006020830186611b76565b61270d6040830185611cb5565b818103606083015261271f81846126a8565b905095945050505050565b5f81519050612738816119b6565b92915050565b5f6020828403121561275357612752611983565b5b5f6127608482850161272a565b9150509291505056fe616e20696d61676520776974682074686520636f6c6c656374696f6e206f662035204d657461746f6b656e204e465420626c6f636b636861696ea26469706673582212207e1a5f63f9a4e89e8e2b743c28842dc82ee145d7c47d43b34d04cffddc2500da64736f6c63430008180033",
  "linkReferences": {},
  "deployedLinkReferences": {}
}